:100000000C9476000C949E000C949E000C949E0020
:100010000C949E000C949E000C949E000C949E00E8
:100020000C949E000C949E000C949E000C949E00D8
:100030000C949E000C949E000C949E000C949E00C8
:100040000C9443070C949E000C9411070C94EB063F
:100050000C949E000C949E000C949E000C949E00A8
:100060000C948D070C949E0007634236B79BD8A76B
:100070001A39685618AEBAAB558C1D3CB7CC5763CD
:10008000BD6DEDFD753EF6177231BF000000803F7B
:1000900000000000240027002A00000000002500C6
:1000A00028002B0000000000230026002900040483
:1000B0000404040404040202020202020303030310
:1000C00003030102040810204080010204081020EC
:1000D00001020408102000000008000201000003D3
:1000E00004070000000000000000AC0811241FBE3F
:1000F000CFEFD8E0DEBFCDBF11E0A0E0B1E0E2E499
:10010000F6E202C005900D92AA3AB107D9F723E0B2
:10011000AAEAB1E001C01D92AF3FB207E1F710E0DB
:10012000C6E7D0E004C02197FE010E94DC11C5376C
:10013000D107C9F70E94FB080C941F130C94000010
:10014000FC019081909528E081E397FF03C0990F0F
:10015000982701C0990F2150C1F78181892798E024
:1001600021E387FF03C0880F822701C0880F9150C9
:10017000C1F7089508950895AF92BF92CF92DF928C
:10018000EF92FF920F931F93CF93DF936C017B014C
:100190008B01040F151FEB015E01AE18BF08C017DD
:1001A000D10759F06991D601ED91FC910190F08150
:1001B000E02DC6010995892B79F7C501DF91CF9113
:1001C0001F910F91FF90EF90DF90CF90BF90AF9075
:1001D0000895FC01538D448D252F30E0842F90E04D
:1001E000821B930B541710F0CF9608950197089532
:1001F000FC01918D828D981761F0A28DAE0FBF2FFB
:10020000B11D5D968C91928D9F5F9F73928F90E050
:1002100008958FEF9FEF0895FC01918D828D9817BF
:1002200031F0828DE80FF11D858D90E008958FEFFC
:100230009FEF0895FC01918D228D892F90E0805CC5
:100240009F4F821B91098F73992708958DE393E047
:100250000E941A0121E0892B09F420E0822F0895E1
:1002600080E090E0892B29F00E94260181110C94F6
:1002700000000895FC01A48DA80FB92FB11DA35A49
:10028000BF4F2C91848D90E001968F739927848FB6
:10029000A689B7892C93A089B1898C9183708064D9
:1002A0008C93938D848D981306C00288F389E02D7A
:1002B00080818F7D80830895EF92FF920F931F932B
:1002C000CF93DF93EC0181E0888F9B8D8C8D981309
:1002D0001AC0E889F989808185FF15C09FB7F89415
:1002E000EE89FF896083E889F98980818370806461
:1002F00080839FBF81E090E0DF91CF911F910F91AC
:10030000FF90EF900895F62E0B8D10E00F5F1F4FBA
:100310000F731127E02E8C8D8E110CC00FB607FCC9
:10032000FACFE889F989808185FFF5CFCE010E9457
:100330003A01F1CFEB8DEC0FFD2FF11DE35AFF4F8A
:10034000F0829FB7F8940B8FEA89FB8980818062E5
:10035000CFCFCF93DF93EC01888D8823B9F0AA89A2
:10036000BB89E889F9898C9185FD03C0808186FD70
:100370000DC00FB607FCF7CF8C9185FFF2CF8081BF
:1003800085FFEDCFCE010E943A01E9CFDF91CF91F9
:100390000895833081F028F4813099F08230A9F0FB
:1003A00008958730A9F08830C9F08430B1F4809185
:1003B00080008F7D03C0809180008F7780938000C4
:1003C000089584B58F7784BD089584B58F7DFBCF64
:1003D0008091B0008F778093B00008958091B00035
:1003E0008F7DF9CFCF93DF93282F30E0F901EA52C8
:1003F000FF4F8491F901EE53FF4FD491F901E2557B
:10040000FF4FC491CC23A1F081110E94C901EC2FB0
:10041000F0E0EE0FFF1FEC55FF4FA591B491EC916A
:10042000ED2381E090E009F480E0DF91CF91089521
:1004300080E090E0FACF1F93CF93DF93282F30E036
:10044000F901EA52FF4F8491F901EE53FF4FD49125
:10045000F901E255FF4FC491CC23A9F0162F811169
:100460000E94C901EC2FF0E0EE0FFF1FE656FF4F90
:10047000A591B4918FB7F894EC91111108C0D09563
:10048000DE23DC938FBFDF91CF911F910895DE2B88
:10049000F8CFCF93DF9390E0FC01EE53FF4F249110
:1004A00082559F4FFC0184918823D1F090E0880F02
:1004B000991FFC01E057FF4FA591B491FC01E6564E
:1004C000FF4FC591D49161110EC09FB7F8948C91E4
:1004D000E22FE0958E238C932881E223E8839FBF4F
:1004E000DF91CF9108958FB7F894EC91E22BEC93C4
:1004F0008FBFF6CF8E50806480937C0080917A000D
:10050000806480937A0080917A0086FDFCCF809190
:1005100078009091790008953FB7F8948091EE01AA
:100520009091EF01A091F001B091F10126B5A89B47
:1005300005C02F3F19F00196A11DB11D3FBFBA2F75
:10054000A92F982F8827BC01CD01620F711D811D35
:10055000911D42E0660F771F881F991F4A95D1F7BA
:1005600008958F929F92AF92BF92CF92DF92EF92B7
:10057000FF926B017C010E948C024B015C01C11453
:10058000D104E104F104B9F00E948C0268197909E0
:100590008A099B09683E73408105910580F321E03B
:1005A000C21AD108E108F10888EE880E83E0981E8F
:1005B000A11CB11CE4CFFF90EF90DF90CF90BF90D3
:1005C000AF909F908F90089585ED8093BC008091AF
:1005D000BC0084FDFCCF1092180308952091CA013D
:1005E000260F3327331F21323105ECF420911803F5
:1005F000FC0190E080E0243069F082E00895A09151
:10060000CA012191AC0146555E4FA40FB52FB11D13
:100610002C930196861798F38091CA01680F609316
:10062000CA0180E0089581E008950895E091D10223
:100630008091D002E81730F4F0E0EE52FD4F808157
:1006400090E008958FEF9FEF08959091D1028091EF
:10065000D0022FEF3FEF981748F4E92FF0E0EE5269
:10066000FD4F208130E09F5F9093D102C901089532
:100670008091D0029091D102891B990B0895CF925D
:10068000DF92EF92FF920F931F93CF93DF937C0142
:10069000CB018A0120913C03222389F0EB016B01FD
:1006A000C40ED51ECC15DD0569F06991D701ED9119
:1006B000FC910190F081E02DC7010995F3CF642FE3
:1006C0000E94EE02C801DF91CF911F910F91FF9020
:1006D000EF90DF90CF900895CF93DF931F92CDB727
:1006E000DEB7698320913C032223F9F0209139037E
:1006F000203258F021E030E0FC013383228390E087
:1007000080E00F90DF91CF91089580913A03E82F18
:10071000F0E0E75EFC4F998190838F5F80933A030E
:100720008093390381E090E0ECCF61E0CE01019647
:100730000E94EE02F7CF90E080E00895CF93DF9320
:100740009B01DC01E901FD0111962F5F3F4F5081B4
:100750004881541305C0FD01E9014C914111F2CFCC
:10076000288121110CC02081222371F03197219121
:10077000222369F02081DC012D93CD01F8CF90E098
:1007800080E0DF91CF91089581E090E0FACF82E0A0
:1007900090E0F7CFDC01F0E0E0E06115710541F198
:1007A0002D912C3211F4615071093196E83CF1051C
:1007B000A1F7E80FF91F808141E050E08D3219F474
:1007C00031964FEF5FEF30E020E0AAE0819190EDAD
:1007D000980F9A3098F4A29FB001A39F700D112436
:1007E000082E000C990BC0979C01260F371FEECFE7
:1007F000E73CF105F1F68FEF9FEF0895249FC001CC
:10080000259F900D349F900D11240895AF92BF92B3
:10081000CF92DF92EF92FF920F931F93CF93DF93CC
:10082000FC01A481B581E090CC02F090CD0222853C
:1008300033850091CA021091CB0280859185A090EA
:10084000C802B090C902C681D781A701421B530BD1
:100850004A175B074CF162817381A801481B590B51
:10086000461757070CF1408151816501CC1ADD0A0A
:10087000C416D506CCF02A0F3B1F33872287860F7C
:10088000971F918780874C0F5D1F5783468381E0B8
:1008900090E0DF91CF911F910F91FF90EF90DF904B
:1008A000CF90BF90AF900895E216F30624F42C5336
:1008B000310933872287081719071CF4CC979187D1
:1008C0008087AC16BD0614F41782168290E080E093
:1008D000E0CF6F927F928F929F92AF92BF92CF9212
:1008E000DF92EF92FF920F931F93CF93DF93CDB7D9
:1008F000DEB7162F7A013901CDB6DEB62091F603A8
:1009000031E030933C0320933B0310923A03109262
:100910003903982E5C018091F4039091F503D50181
:100920006D915D01DC01ED91FC910190F081E02D74
:1009300009958A2D8919811770F320913903213285
:1009400008F042C0809118038111FCCF80913B03D5
:1009500092E09093180391E0909317039FEF909388
:1009600016031092150320931403E9E1F3E0A4EFBA
:10097000B2E090E0291392C01092F3029091F3023A
:10098000880F892B8093F3028091F202813009F065
:1009900089C01092F2028091F3028093BB00809193
:1009A000BC0083FDF8CF85EC8093BC0080911803D8
:1009B0008230E1F3809116038F3F31F0809116036E
:1009C000803211F08091160310923A03109239038D
:1009D00010923C03B70190E080E00E94B102002336
:1009E00009F4A6C0809118038111FCCF802F880FD5
:1009F000800F9091F60321E02093180320931703B2
:100A00003FEF3093160310921503380F3093140301
:100A10002093F3022091F302990F922B9093F3020B
:100A20009091F202913009F03FC01092F202909141
:100A3000F3029093BB009091BC0093FDF8CF95EC2E
:100A40009093BC00909118039130E1F390911503BD
:100A5000981760F590911503E4EFF2E0A2EDB2E093
:100A600010E0191325C01092D1021093D002811703
:100A700019F180E00FB6F894DEBE0FBECDBEDF9157
:100A8000CF911F910F91FF90EF90DF90CF90BF908B
:100A9000AF909F908F907F906F90089531913D938C
:100AA0009F5F68CF85EE80CF95EECACF982FD4CFC9
:100AB00021912D931F5FD5CFEDB7FEB7E11BF10953
:100AC0000FB6F894FEBF0FBEEDBF8DB79EB701966F
:100AD0005C017C014C018091F4039091F503DC01F1
:100AE000ED91FC910284F385E02D0995F401819349
:100AF0004F018E2F8A19811770F3530110E0C7013F
:100B00000E94A000D70112969C9112978913B1CF31
:100B10008C9111969C91892798278927F5018193BB
:100B200091935F011F5FF3E0EF0EF11C0113E7CF1C
:100B300081E0A0CFFC0101900020E9F73197AF01DF
:100B4000481B590BBC018DE393E00C94BC008F92C1
:100B50009F92AF92BF920F931F93CF93DF93CDB726
:100B6000DEB7A1970FB6F894DEBF0FBECDBF19A2B6
:100B7000423008F44AE08E010F5D1F4F842E912C05
:100B8000B12CA12CA50194010E947211E62FB9018C
:100B9000CA01EA30F4F4E05DD801EE938D01232B15
:100BA000242B252B79F790E080E0109719F0CD01E8
:100BB0000E949A05A1960FB6F894DEBF0FBECDBF76
:100BC000DF91CF911F910F91BF90AF909F908F9029
:100BD0000895E95CE1CFCF92DF92EF92FF92CF933D
:100BE000DF936C01990FEE08FF08F7FE19C06DE264
:100BF0008DE393E00E945C01EC0166277727CB012F
:100C00006C197D098E099F094AE00E94A7058C0F87
:100C10009D1FDF91CF91FF90EF90DF90CF900895CF
:100C20004AE0C701B601DF91CF91FF90EF90DF90CE
:100C3000CF900C94A7050C949A054F925F926F92F7
:100C40007F928F929F92AF92BF92CF92DF92EF925C
:100C5000FF926B017C01AC019B010E945F11882314
:100C600081F089E791E0FF90EF90DF90CF90BF9007
:100C7000AF909F908F907F906F905F904F900C946B
:100C80009A0546015701E894B7F82FEF3FEF4FE779
:100C90005FE7C501B4010E945F1181110DC02FEF04
:100CA0003FEF4FE75FE7C501B4010E94BE0E181683
:100CB0001CF48DE791E0D7CF2FEF3FEF4FE75FE4D4
:100CC000C701B6010E94771018161CF481E891E064
:100CD000CACF2FEF3FEF4FE75FECC701B6010E948D
:100CE000BE0E87FDF3CF20E030E0A901C701B601B9
:100CF0000E94BE0EB12CA12C87FF0AC06DE28DE3CD
:100D000093E00E945C015C01F7FAF094F7F8F0942C
:100D10002AE037ED43EA5BE3C701B6010E94520EB9
:100D20002B013C010E946F0F6B017C010E949E0F02
:100D30009B01AC01C301B2010E94510E2B013C0189
:100D40004AE0C701B6010E94A7057C01EA0CFB1C22
:100D50006EE28DE393E00E945C01E80EF91E20E054
:100D600030E040E251E4C301B2010E94F2102B01D5
:100D70003C010E946F0F4B01B12CA12C4AE0C50130
:100D8000B4010E94A705E80EF91EC501B4010E9436
:100D90009E0F9B01AC01C301B2010E94510E20E0E5
:100DA00030E040E251E40E94F2100E946F0F90E0A8
:100DB00080E04AE00E94A7058E0D9F1DFF90EF90F6
:100DC000DF90CF90BF90AF909F908F907F906F906B
:100DD0005F904F9008951F920F920FB60F921124BB
:100DE0002F933F934F935F936F937F938F939F9333
:100DF000AF93BF93EF93FF938DE393E00E943A018B
:100E0000FF91EF91BF91AF919F918F917F916F91E2
:100E10005F914F913F912F910F900FBE0F901F90B8
:100E200018951F920F920FB60F9211242F938F9344
:100E30009F93EF93FF93E0914D03F0914E038081D8
:100E4000E0915303F091540382FD1BC09081809187
:100E500056038F5F8F7320915703821741F0E09103
:100E60005603F0E0E35CFC4F958F80935603FF91AF
:100E7000EF919F918F912F910F900FBE0F901F9028
:100E800018958081F4CF1F920F920FB60F92112404
:100E90002F933F938F939F93AF93BF938091F601CE
:100EA0009091F701A091F801B091F9013091ED0115
:100EB00023E0230F2D3758F50196A11DB11D209376
:100EC000ED018093F6019093F701A093F801B093A0
:100ED000F9018091EE019091EF01A091F001B091A4
:100EE000F1010196A11DB11D8093EE019093EF01D8
:100EF000A093F001B093F101BF91AF919F918F91B9
:100F00003F912F910F900FBE0F901F90189526E8DC
:100F1000230F0296A11DB11DD2CF1F920F920FB6C3
:100F20000F9211242F933F934F935F936F937F936F
:100F30008F939F93AF93BF93EF93FF938091B900EB
:100F4000887F803609F44AC0F0F5883209F4A7C0DA
:100F500018F5803109F49BC0B8F4882309F4F9C06E
:100F6000883009F494C0FF91EF91BF91AF919F91A8
:100F70008F917F916F915F914F913F912F910F9042
:100F80000FBE0F901F901895883109F488C08032E9
:100F900051F78093160314C0803409F49DC040F4C7
:100FA0008033B9F38833F9F68093160385ECB0C02B
:100FB000803509F485C0883509F496C0883499F6DF
:100FC0000E94E402D0CF883909F48CC038F5883704
:100FD00029F050F4883611F0803729F683E08093A9
:100FE00018031092EC0157C0883809F47BC080398F
:100FF00019F0803809F0B7CF8091EC01803208F009
:1010000071C0E091EC0181E08E0F8093EC01809142
:10101000BB00F0E0E453FE4F80833DC0803B39F0DD
:10102000E0F4803A09F479C0883A09F09CCF84E072
:10103000809318031092CB011092CA01E091F40141
:10104000F091F50109958091CA0181110FC081E0ED
:101050008093CA011092AA0109C0803C09F4A6CF6E
:10106000883C09F4A3CF883B09F07DCFE091CB0108
:1010700081E08E0F8093CB01F0E0E655FE4F80813A
:101080008093BB009091CB018091CA0129C08091CF
:10109000F3028093BB0085EC8093BC0064CF9091F9
:1010A000150380911403981758F5E091150381E01A
:1010B0008E0F80931503F0E0EC50FD4F8081E9CF57
:1010C000E091150381E08E0F809315038091BB00A2
:1010D000F0E0EC50FD4F8083909115038091140354
:1010E0009817C8F285E8D8CFE091150381E08E0FFC
:1010F000809315038091BB00F0E0EC50FD4F80839E
:101100008091170381115CCF81E08093F20284EA21
:101110008093BC001092180326CF85EC8093BC000E
:10112000109218038091EC01803230F4E091EC01D0
:10113000F0E0E453FE4F10826091EC0170E0E0912A
:10114000F201F091F3018CEC91E009951092EC0121
:101150000ACF1092160334CFEDE3F3E0138212822C
:1011600088EE93E0A0E0B0E084839583A683B78304
:1011700029E531E03183208325EC30E03587248771
:1011800024EC30E03787268720EC30E0318B208B51
:1011900021EC30E0338B228B22EC30E0358B248B3A
:1011A00026EC30E0378B268B118E128E138E148E28
:1011B000EAEDF3E01382128284839583A683B783DA
:1011C0008BE691E0918380838AEC90E00E94FA1193
:1011D00028ECFC0111922A95E9F7FC01E853FF4F36
:1011E000118210829093FA038093F9039093F8038D
:1011F0008093F7030895CF93DF93CDB7DEB72C9795
:101200000FB6F894DEBF0FBECDBF789484B5826070
:1012100084BD84B5816084BD85B5826085BD85B59A
:10122000816085BD80916E00816080936E00109218
:101230008100809181008260809381008091810093
:101240008160809381008091800081608093800024
:101250008091B10084608093B1008091B000816082
:101260008093B00080917A00846080937A008091AE
:101270007A00826080937A0080917A008160809306
:101280007A0080917A00806880937A001092C10081
:10129000E0914D03F0914E0382E08083E091490399
:1012A000F0914A031082E0914B03F0914C038FECD4
:1012B000808310925503E0915103F091520386E030
:1012C0008083E0914F03F09150038081806180839F
:1012D000E0914F03F0915003808188608083E0911A
:1012E0004F03F0915003808180688083E0914F0329
:1012F000F091500380818F7D808361E082E00E94C5
:10130000490261E082E00E941B0261E083E00E94EA
:10131000490261E083E00E941B0261E084E00E94D8
:10132000490261E084E00E941B0261E085E00E94C6
:10133000490261E085E00E941B0261E086E00E94B4
:10134000490261E086E00E941B0260E084E10E94A5
:10135000490260E081E10E94490260E080E10E9470
:10136000490260E08FE00E94490288E58093F6031D
:101370008AED93E09093F5038093F4031092D102E9
:101380001092D00210923A0310923903109218036F
:1013900081E0809317031092F20261E082E10E94E3
:1013A0001B0261E083E10E941B028091B9008E7FE5
:1013B0008093B9008091B9008D7F8093B90088E453
:1013C0008093B80085E48093BC008AEB90E0909312
:1013D000F5018093F4018BEB90E09093F3018093FF
:1013E000F20186E38B8782E88C8703E02EEE33E000
:1013F0004AE050E062E0CE010B960E946904882327
:1014000021F110E21B878FE28C8701E09E01275FAC
:101410003F4F4AE050E062E0CE010B960E94690423
:10142000882399F089859A85807F9927809769F428
:10143000198383E08A8300E030E020E04AE050E056
:1014400062E0CE0101960E94690480E289838EE108
:101450008A8384E88B8386E78C83CE0103960E947F
:10146000A0008D8385E88E8381E08F83CE01069670
:101470000E94A000888700E030E020E04AE050E0D1
:1014800068E0CE0101960E94690450E0252E50E0EC
:10149000352EAA24AA94BA2C40E2942E31E6832E4B
:1014A0002FB7F8948091F6019091F701A091F8017F
:1014B000B091F9012FBFFC018091CE029091CF0233
:1014C0004091CC025091CD022091CA023091CB02C2
:1014D0006091C8027091C902DF01A81BB90BA83E38
:1014E000B34098F088519C4F4F5F5F4F4C3351058C
:1014F00021F42F5F3F4F50E040E02C33310561F77E
:101500006F5F7F4F30E020E0E7CF5093CD024093F4
:10151000CC023093CB022093CA029093CF028093E7
:10152000CE027093C9026093C802E817F90720F44D
:101530001092CF021092CE0277FF04C01092C9021F
:101540001092C80283E191E00E940604892BE9F021
:1015500084E10E947A0290930E0180930D0185E848
:1015600091E00E941B0689E891E00E941B068BE82F
:1015700091E00E941B0680910D0190910E010E9446
:10158000EB058DE891E00E941B068FE191E00E943F
:101590000604892B09F4C2C0C0900101D090020159
:1015A000E0900301F090040123EC35EF4CE851E4A6
:1015B000C701B6010E94F2102B013C0128EB3EE16D
:1015C00043E753E4C701B6010E94520E9B01AC01F0
:1015D000C301B2010E94C30E0E943D0F2B013C01CA
:1015E00020E030E048EC52E4609105017091060182
:1015F00080910701909108010E94C30E21E835E90E
:1016000043EC50E40E94F210A30192010E94F210F8
:101610002B013C0123E333E948E853E4C701B60159
:101620000E94520E9B01AC01C301B2010E94C30E85
:1016300023E333EB48E553E40E94F21020E030E06E
:101640004AE754E40E94F2100E946F0F613028EEC6
:10165000720723E082079105E8F420E039E841E4CD
:1016600050E00E94941108E10E94C111C9019982C1
:101670008A829B832C83CE0103960E94A0008D83D7
:1016800000E030E020E04AE050E065E0CE01019665
:101690000E946904998688E08A8702E09E012F5F94
:1016A0003F4F4CE050E062E0CE0109960E94690491
:1016B0008823A1F08B819C819093E7038093E603BC
:1016C00029813A813093E9032093E80330930A019A
:1016D0002093090190930C0180930B0180E991E024
:1016E0000E941B0689E891E00E941B068BE891E0AE
:1016F0000E941B068091090190910A010E94EB054E
:101700008BE891E00E941B0680910B0190910C01E7
:101710000E94EB058DE891E00E941B068BE291E0B0
:101720000E940604892BE9F081E10E947A029093DD
:10173000100180930F0184E991E00E941B0689E863
:1017400091E00E941B068BE891E00E941B068091AD
:101750000F01909110010E94EB058DE891E00E942D
:101760001B0687E391E00E940604892BE9F080E1E3
:101770000E947A02909312018093110188E991E00E
:101780000E941B0689E891E00E941B068BE891E00D
:101790000E941B0680911101909112010E94EB059D
:1017A0008DE891E00E941B0683E491E00E9406040C
:1017B000892B09F476C019821A821B821C821D8231
:1017C00061E08FE00E94490260E08FE00E941B020E
:1017D00062E170E080E090E00E94B10261E08FE0A1
:1017E0000E941B028BE990E00197F1F760E08FE027
:1017F0000E94490201E117E28FE00E94F201892B69
:1018000009F08CC001501109B9F76091FC01709189
:10181000FD01072E000C880B990B0E94A00F60930E
:101820000101709302018093030190930401609180
:10183000FA017091FB01072E000C880B990B0E9496
:10184000A00F6093050170930601809307019093A8
:1018500008018CE991E00E941B0689E891E00E9452
:101860001B068BE891E00E941B06609101017091BC
:10187000020180910301909104010E941D068BE8F2
:1018800091E00E941B066091050170910601809114
:101890000701909108010E941D068DE891E00E94C9
:1018A0001B068DE393E00E941A01892B09F4ABC05B
:1018B0008DE393E00E94F8000091C6021091C702E8
:1018C000F801E250FE4F80838A3009F092C0011582
:1018D000110509F48EC08AEC90E00E94FA11FC0117
:1018E00028EC11922A95E9F7FC01E853FF4F118289
:1018F0001082E091F703F091F803DF01A853BF4F86
:101900008D939C93AEEFB1E09D012E5F3140201787
:1019100031070CF066C02D912193F6CF01E117E25B
:101920008FE00E94F201019721F401501109C1F7E3
:101930006CCF28E2E22EF12C17E000E091E1C92EF5
:1019400097E2D92E8FE00E94F201892B29F4E1E081
:10195000CE1AD108B9F759CF0E948C022B013C0155
:1019600081E1C82E87E2D82E8FE00E94F201019714
:1019700029F4F1E0CF1AD108B9F747CF0E948C02C1
:101980006419750986099709693271058105910500
:1019900080F0E1E0F0E0EC0FFD1FE00FF11D808131
:1019A00021E030E0012E01C0220F0A94EAF7822BD9
:1019B0008083111114C00F5F17E021E0E21AF108D3
:1019C00009F0BCCF898190E09093FB018093FA01EC
:1019D0008B8190E09093FD018093FC0116CF115014
:1019E000ECCF9093F8038093F703B092C702A092D4
:1019F000C6028091C6029091C70201969093C702D9
:101A00008093C6024ECF0091F9031091FA0378013A
:101A100088ECE80EF11CF70180819181892B09F493
:101A200004C161EA71E0C8010E949E03892B09F498
:101A300051C070E060E0C8010E94CA038230910585
:101A4000A9F17CF40097E1F0019731F1F701808171
:101A500091819093FA038093F903C8010E94961232
:101A6000D2CF8330910561F1049781F761E070E096
:101A7000C8010E94CA039091000180FB94F909C03B
:101A800061E070E0C8010E94CA039091000180FBF0
:101A900090F990930001DACF61E070E0C8010E94F4
:101AA000CA039091000180FB91F9F3CF61E070E0EF
:101AB000C8010E94CA039091000180FB92F9E9CF0E
:101AC00061E070E0C8010E94CA039091000180FBB0
:101AD00093F9DFCF65EA71E0C8010E949E03892B6C
:101AE00009F4B4CF70E060E0C8010E94CA038230FC
:101AF000910509F462C014F5009709F442C00197FA
:101B000009F0A4CF61E070E0C8010E94CA0390937D
:101B1000200180931F0162E070E0C8010E94CA03A7
:101B2000909322018093210163E070E0C8010E943C
:101B3000CA03909324018093230188CF83309105B9
:101B400009F457C0049709F081CF61E070E0C80143
:101B50000E94CA03909344018093430162E070E0C5
:101B6000C8010E94CA03909346018093450163E037
:101B700070E0C8010E94CA03909348018093470116
:101B800065CF61E070E0C8010E94CA039093140120
:101B90008093130162E070E0C8010E94CA03909331
:101BA00016018093150163E070E0C8010E94CA032A
:101BB000909318018093170149CF61E070E0C8014C
:101BC0000E94CA0390932C0180932B0162E070E085
:101BD000C8010E94CA0390932E0180932D0163E0F7
:101BE00070E0C8010E94CA039093300180932F01D6
:101BF0002DCF61E070E0C8010E94CA0390933801C4
:101C00008093370162E070E0C8010E94CA0390939C
:101C10003A018093390163E070E0C8010E94CA0371
:101C200090933C0180933B0111CF60910001617062
:101C300082E00E941B02609100016695617083E062
:101C40000E941B026091000162FB662760F984E03C
:101C50000E941B026091000163FB662760F985E02A
:101C60000E941B02609100016295617086E00E94F3
:101C70001B028091000184FD08C061E08FE00E949A
:101C8000490261E08FE00E941B022114310409F433
:101C900007CC0E942601882309F400CC0E94000092
:101CA000FBCB5058BB27AA270E94690E0C943D100D
:101CB0000E942F1038F00E94361020F039F49F3F18
:101CC00019F426F40C9405100EF4E095E7FB0C943F
:101CD000FF0FE92F0E944E1058F3BA1762077307DF
:101CE0008407950720F079F4A6F50C9470100EF493
:101CF000E0950B2EBA2FA02D0B01B90190010C011C
:101D0000CA01A0011124FF27591B99F0593F50F433
:101D1000503E68F11A16F040A22F232F342F44278B
:101D2000585FF3CF469537952795A795F040539583
:101D3000C9F77EF41F16BA0B620B730B840BBAF053
:101D40009150A1F0FF0FBB1F661F771F881FC2F7BE
:101D50000EC0BA0F621F731F841F48F487957795D2
:101D60006795B795F7959E3F08F0B0CF9395880F8C
:101D700008F09927EE0F9795879508950E94DB0F3D
:101D800008F481E008950E94D70E0C943D100E9443
:101D9000361058F00E942F1040F029F45F3F29F0D0
:101DA0000C94FF0F51110C9471100C9405100E94AB
:101DB0004E1068F39923B1F3552391F3951B550BFE
:101DC000BB27AA2762177307840738F09F5F5F4F0E
:101DD000220F331F441FAA1FA9F335D00E2E3AF04D
:101DE000E0E832D091505040E695001CCAF72BD065
:101DF000FE2F29D0660F771F881FBB1F26173707B6
:101E00004807AB07B0E809F0BB0B802DBF01FF27E7
:101E100093585F4F3AF09E3F510578F00C94FF0FB6
:101E20000C9471105F3FE4F3983ED4F38695779558
:101E30006795B795F7959F5FC9F7880F911D9695A0
:101E4000879597F90895E1E0660F771F881FBB1FFC
:101E5000621773078407BA0720F0621B730B840BA9
:101E6000BA0BEE1F88F7E095089529F416F00C944C
:101E7000FF0F0C9470100C9405100E945610A8F3DC
:101E80009638A0F707F80F92E8942BE33AEA48EB6C
:101E90005FE70E9408110F920F920F924DB75EB745
:101EA0000F920E94BE10E8E6F0E00E9408104F91E9
:101EB0005F91EF91FF91E595EE1FFF1F49F0FE57EF
:101EC000E0684427EE0F441FFA95E1F74195550B62
:101ED0000E9488100F9007FE0C947C1008950E94B9
:101EE000561088F09F5798F0B92F9927B751B0F046
:101EF000E1F0660F771F881F991F1AF0BA95C9F78E
:101F000014C0B13091F00E947010B1E008950C94AB
:101F10007010672F782F8827B85F39F0B93FCCF35E
:101F2000869577956795B395D9F73EF4909580950A
:101F3000709561957F4F8F4F9F4F0895E89409C02A
:101F400097FB3EF490958095709561957F4F8F4FEC
:101F50009F4F9923A9F0F92F96E9BB279395F69502
:101F6000879577956795B795F111F8CFFAF4BB0F80
:101F700011F460FF1BC06F5F7F4F8F4F9F4F16C0E4
:101F8000882311F096E911C0772321F09EE8872F6E
:101F9000762F05C0662371F096E8862F70E060E02A
:101FA0002AF09A95660F771F881FDAF7880F9695A3
:101FB000879597F90895990F0008550FAA0BE0E847
:101FC000FEEF16161706E807F907C0F012161306FB
:101FD000E407F50798F0621B730B840B950B39F43B
:101FE0000A2661F0232B242B252B21F408950A26A1
:101FF00009F4A140A6958FEF811D811D089597F9E1
:102000009F6780E870E060E008959FEF80EC08959E
:10201000DF93CF931F930F93FF92EF92DF927B0199
:102020008C01689406C0DA2EEF010E940511FE01B2
:10203000E894A5912591359145915591A6F3EF012D
:102040000E94690EFE019701A801DA9469F7DF90FA
:10205000EF90FF900F911F91CF91DF910895002491
:102060000A941616170618060906089500240A94FD
:1020700012161306140605060895092E0394000C83
:1020800011F4882352F0BB0F40F4BF2B11F460FF12
:1020900004C06F5F7F4F8F4F9F4F089557FD90583B
:1020A000440F551F59F05F3F71F04795880F97FB1C
:1020B000991F61F09F3F79F08795089512161306D6
:1020C0001406551FF2CF4695F1DF08C01616170605
:1020D0001806991FF1CF869571056105089408953A
:1020E000E894BB2766277727CB0197F908950E94CC
:1020F000DB0F08F48FEF08959B01AC0160E070E006
:1021000080E89FE30C94C30E0C94FF0F0C946411B1
:102110000E945610D8F39923C9F3940F511DA3F3CD
:102120009150504094F059F0882332F0660F771F99
:10213000881F91505040C1F79E3F51052CF7880FE2
:10214000911D9695879597F908955F3FACF0983E5D
:102150009CF0BB27869577956795B79508F4B16095
:102160009395C1F7BB0F58F711F460FFE8CF6F5F8D
:102170007F4F8F4F9F4FE3CF0C947110FA01DC011A
:10218000AA0FBB1F9B01AC01BF5728F4222733279E
:102190004427507820C0B75190F4AB2F00244695C7
:1021A00037952795011CA395D2F3002071F0220FDB
:1021B000331F441FB395DAF30ED00C94510E6130E7
:1021C0007105A0E88A07B94630F49B01AC01662787
:1021D000772788279078309621F0208331834283B7
:1021E000538308950E9405110C943D100E942F10F6
:1021F00038F00E94361020F0952311F00C94FF0F58
:102200000C94051011240C9471100E944E1070F360
:10221000959FC1F3950F50E0551F629FF001729F8B
:10222000BB27F00DB11D639FAA27F00DB11DAA1F9A
:10223000649F6627B00DA11D661F829F2227B00DE7
:10224000A11D621F739FB00DA11D621F839FA00D72
:10225000611D221F749F3327A00D611D231F849FC2
:10226000600D211D822F762F6A2F11249F57504019
:102270009AF0F1F088234AF0EE0FFF1FBB1F661F94
:10228000771F881F91505040A9F79E3F510580F05D
:102290000C94FF0F0C9471105F3FE4F3983ED4F35D
:1022A000869577956795B795F795E7959F5FC1F701
:1022B000FE2B880F911D9695879597F908950E949A
:1022C000DB0F880B990B08959F3F31F0915020F45C
:1022D000879577956795B795880F911D9695879502
:1022E00097F90895A1E21A2EAA1BBB1BFD010DC090
:1022F000AA1FBB1FEE1FFF1FA217B307E407F507B6
:1023000020F0A21BB30BE40BF50B661F771F881F91
:10231000991F1A9469F760957095809590959B0127
:10232000AC01BD01CF010895E894DF93CF93FC0188
:10233000DB010E94E2117F936F93E9019A01AC01E6
:10234000BF93AF933F932F93DF010E94E21126F4D6
:102350006C1B7D0B820B930B9E01EB01FC010E9419
:10236000F111AF91BF912F913F910E94F111BE01E8
:10237000CF01F9012F913F91CF91DF91089597FD02
:102380001094002E083098F00850232F342F452F3A
:10239000562F672F782F892F912DF4CF159497956D
:1023A00087957795679557954795379527950A951A
:1023B000AAF71124002D0895EE0FFF1F0590F49148
:1023C000E02D0994A29FB001B39FC001A39F700D9F
:1023D000811D1124911DB29F700D811D1124911D2D
:1023E00008950E94E211460F571FC81FD91F08F415
:1023F000319608950F931F93CF93DF938230910509
:1024000010F482E090E0E091FD03F091FE0330E0F3
:1024100020E0B0E0A0E0309799F42115310509F4EF
:102420004AC0281B390B24303105D8F58A819B819D
:102430006115710589F1FB0193838283FE0111C04F
:10244000408151810281138148175907E0F04817F4
:10245000590799F4109761F012960C9312971396FE
:102460001C933296CF01DF91CF911F910F91089568
:102470000093FD031093FE03F4CF2115310551F0B5
:102480004217530738F0A901DB019A01BD01DF01B2
:10249000F801C1CFEF01F9CF9093FE038093FD03C4
:1024A000CDCFFE01E20FF31F8193919322503109AA
:1024B00039832883D7CF2091FB033091FC03232B52
:1024C00041F420915101309152013093FC0320934B
:1024D000FB0320914F01309150012115310541F44A
:1024E0002DB73EB74091530150915401241B350B39
:1024F000E091FB03F091FC03E217F307A0F42E1B1D
:102500003F0B2817390778F0AC014E5F5F4F241757
:10251000350748F04E0F5F1F5093FC034093FB03B9
:10252000819391939FCFF0E0E0E09CCFCF93DF9336
:102530000097E9F0FC01329713821282A091FD030B
:10254000B091FE03ED0130E020E01097A1F420816E
:102550003181820F931F2091FB033091FC032817D8
:10256000390709F061C0F093FC03E093FB03DF91AE
:10257000CF910895EA01CE17DF07E8F54A815B8124
:102580009E0141155105B1F7E901FB83EA834991A9
:102590005991C40FD51FEC17FD0761F4808191811B
:1025A0000296840F951FE901998388838281938124
:1025B0009B838A83F0E0E0E012968D919C911397C3
:1025C0000097B9F52D913C911197CD010296820F9C
:1025D000931F2091FB033091FC032817390739F62C
:1025E000309751F51092FE031092FD03B093FC0357
:1025F000A093FB03BCCFD383C28340815181840F5E
:10260000951FC817D90761F44E5F5F4F8881998184
:10261000480F591F518340838A819B819383828312
:102620002115310509F0B0CFF093FE03E093FD03CF
:102630009ECFFD01DC01C0CF13821282D7CFF89468
:02264000FFCFCA
:102642001F00000000000000000000000000000069
:102652000000000000000001000000000000000077
:102662000000001400000000000000000000001440
:1026720000000000000000000000000A000000004E
:102682000000000000000005000000000000000043
:1026920000FF038000000000005C01BC00E900A90B
:1026A200011A01F8000C01000000006C033F039BBB
:1026B2000315033803250316036E616E00696E6607
:1026C200006F766600676D3A0031002C000D0A003B
:1026D200636F3A006D713A0074723A006474683A3A
:0A26E200006B673A0064733A0000D1
:00000001FF
